{
  "contractName": "Marketplace",
  "abi": [
    {
      "constant": true,
      "inputs": [],
      "name": "orderIndex",
      "outputs": [
        {
          "name": "",
          "type": "uint256"
        }
      ],
      "payable": false,
      "stateMutability": "view",
      "type": "function"
    },
    {
      "constant": true,
      "inputs": [],
      "name": "requestIndex",
      "outputs": [
        {
          "name": "",
          "type": "uint256"
        }
      ],
      "payable": false,
      "stateMutability": "view",
      "type": "function"
    },
    {
      "constant": false,
      "inputs": [],
      "name": "renounceOwnership",
      "outputs": [],
      "payable": false,
      "stateMutability": "nonpayable",
      "type": "function"
    },
    {
      "constant": true,
      "inputs": [],
      "name": "stopped",
      "outputs": [
        {
          "name": "",
          "type": "bool"
        }
      ],
      "payable": false,
      "stateMutability": "view",
      "type": "function"
    },
    {
      "constant": true,
      "inputs": [],
      "name": "owner",
      "outputs": [
        {
          "name": "",
          "type": "address"
        }
      ],
      "payable": false,
      "stateMutability": "view",
      "type": "function"
    },
    {
      "constant": true,
      "inputs": [],
      "name": "isOwner",
      "outputs": [
        {
          "name": "",
          "type": "bool"
        }
      ],
      "payable": false,
      "stateMutability": "view",
      "type": "function"
    },
    {
      "constant": true,
      "inputs": [],
      "name": "productIndex",
      "outputs": [
        {
          "name": "",
          "type": "uint256"
        }
      ],
      "payable": false,
      "stateMutability": "view",
      "type": "function"
    },
    {
      "constant": false,
      "inputs": [
        {
          "name": "newOwner",
          "type": "address"
        }
      ],
      "name": "transferOwnership",
      "outputs": [],
      "payable": false,
      "stateMutability": "nonpayable",
      "type": "function"
    },
    {
      "inputs": [],
      "payable": false,
      "stateMutability": "nonpayable",
      "type": "constructor"
    },
    {
      "anonymous": false,
      "inputs": [
        {
          "indexed": false,
          "name": "_productId",
          "type": "uint256"
        },
        {
          "indexed": false,
          "name": "_amount",
          "type": "uint256"
        },
        {
          "indexed": false,
          "name": "_totalPrice",
          "type": "uint256"
        }
      ],
      "name": "buyProduct",
      "type": "event"
    },
    {
      "anonymous": false,
      "inputs": [
        {
          "indexed": false,
          "name": "amount",
          "type": "uint256"
        }
      ],
      "name": "withdrawEther",
      "type": "event"
    },
    {
      "anonymous": false,
      "inputs": [
        {
          "indexed": true,
          "name": "previousOwner",
          "type": "address"
        },
        {
          "indexed": true,
          "name": "newOwner",
          "type": "address"
        }
      ],
      "name": "OwnershipTransferred",
      "type": "event"
    },
    {
      "constant": false,
      "inputs": [],
      "name": "requestAuth",
      "outputs": [],
      "payable": false,
      "stateMutability": "nonpayable",
      "type": "function"
    },
    {
      "constant": false,
      "inputs": [
        {
          "name": "_user",
          "type": "address"
        }
      ],
      "name": "setAuth",
      "outputs": [],
      "payable": false,
      "stateMutability": "nonpayable",
      "type": "function"
    },
    {
      "constant": true,
      "inputs": [
        {
          "name": "_user",
          "type": "address"
        }
      ],
      "name": "getAuth",
      "outputs": [
        {
          "name": "",
          "type": "uint8"
        }
      ],
      "payable": false,
      "stateMutability": "view",
      "type": "function"
    },
    {
      "constant": true,
      "inputs": [
        {
          "name": "_requestIdx",
          "type": "uint256"
        }
      ],
      "name": "getRequest",
      "outputs": [
        {
          "name": "",
          "type": "address"
        }
      ],
      "payable": false,
      "stateMutability": "view",
      "type": "function"
    },
    {
      "constant": false,
      "inputs": [
        {
          "name": "_name",
          "type": "string"
        },
        {
          "name": "_desc",
          "type": "string"
        },
        {
          "name": "_imageLink",
          "type": "string"
        },
        {
          "name": "_price",
          "type": "uint256"
        },
        {
          "name": "_amount",
          "type": "uint256"
        }
      ],
      "name": "addProductToStore",
      "outputs": [],
      "payable": false,
      "stateMutability": "nonpayable",
      "type": "function"
    },
    {
      "constant": true,
      "inputs": [
        {
          "name": "_productId",
          "type": "uint256"
        }
      ],
      "name": "getProduct",
      "outputs": [
        {
          "name": "",
          "type": "uint256"
        },
        {
          "name": "",
          "type": "string"
        },
        {
          "name": "",
          "type": "string"
        },
        {
          "name": "",
          "type": "string"
        },
        {
          "name": "",
          "type": "uint256"
        },
        {
          "name": "",
          "type": "uint256"
        },
        {
          "name": "",
          "type": "address"
        }
      ],
      "payable": false,
      "stateMutability": "view",
      "type": "function"
    },
    {
      "constant": false,
      "inputs": [
        {
          "name": "_productId",
          "type": "uint256"
        },
        {
          "name": "_amount",
          "type": "uint256"
        }
      ],
      "name": "buy",
      "outputs": [],
      "payable": true,
      "stateMutability": "payable",
      "type": "function"
    },
    {
      "constant": true,
      "inputs": [
        {
          "name": "_orderId",
          "type": "uint256"
        }
      ],
      "name": "getOrder",
      "outputs": [
        {
          "name": "",
          "type": "uint256"
        },
        {
          "name": "",
          "type": "uint256"
        },
        {
          "name": "",
          "type": "uint256"
        },
        {
          "name": "",
          "type": "uint256"
        },
        {
          "name": "",
          "type": "address"
        }
      ],
      "payable": false,
      "stateMutability": "view",
      "type": "function"
    },
    {
      "constant": true,
      "inputs": [],
      "name": "balanceOf",
      "outputs": [
        {
          "name": "",
          "type": "uint256"
        }
      ],
      "payable": false,
      "stateMutability": "view",
      "type": "function"
    },
    {
      "constant": false,
      "inputs": [],
      "name": "withdraw",
      "outputs": [],
      "payable": false,
      "stateMutability": "nonpayable",
      "type": "function"
    },
    {
      "constant": false,
      "inputs": [],
      "name": "toggleContractActive",
      "outputs": [],
      "payable": false,
      "stateMutability": "nonpayable",
      "type": "function"
    }
  ],
  "bytecode": "0x60806040526000600b60006101000a81548160ff0219169083151502179055506000600b60016101000a81548160ff02191690831515021790555034801561004657600080fd5b50336000806101000a81548173ffffffffffffffffffffffffffffffffffffffff021916908373ffffffffffffffffffffffffffffffffffffffff1602179055506000809054906101000a900473ffffffffffffffffffffffffffffffffffffffff1673ffffffffffffffffffffffffffffffffffffffff16600073ffffffffffffffffffffffffffffffffffffffff167f8be0079c531659141344cd1fd0a4f28419497f9722a3daafe3b4186f6b6457e060405160405180910390a3600060088190555060006009819055506003600160003373ffffffffffffffffffffffffffffffffffffffff1673ffffffffffffffffffffffffffffffffffffffff16815260200190815260200160002060006101000a81548160ff0219169083600381111561016f57fe5b02179055506121e2806101836000396000f3fe608060405260043610610107576000357c0100000000000000000000000000000000000000000000000000000000900463ffffffff1680631385d24c1461010c5780631b5c6522146101235780632b2e05c11461013a57806330471fee1461018b5780633ccfd60b146101b6578063420714bd146101cd5780636e4e3e2d146101f8578063715018a61461026b578063722713f71461028257806375f12b21146102ad5780638da5cb5b146102dc5780638f32d59b146103335780639a8a264514610362578063b9db15b41461056c578063c58343ef14610740578063c897d5a6146107bb578063d09ef241146107e6578063d6febde81461087d578063f2fde38b146108b5575b600080fd5b34801561011857600080fd5b50610121610906565b005b34801561012f57600080fd5b50610138610945565b005b34801561014657600080fd5b506101896004803603602081101561015d57600080fd5b81019080803573ffffffffffffffffffffffffffffffffffffffff169060200190929190505050610a0c565b005b34801561019757600080fd5b506101a0610a83565b6040518082815260200191505060405180910390f35b3480156101c257600080fd5b506101cb610a89565b005b3480156101d957600080fd5b506101e2610d8a565b6040518082815260200191505060405180910390f35b34801561020457600080fd5b506102476004803603602081101561021b57600080fd5b81019080803573ffffffffffffffffffffffffffffffffffffffff169060200190929190505050610d90565b6040518082600381111561025757fe5b60ff16815260200191505060405180910390f35b34801561027757600080fd5b50610280610de6565b005b34801561028e57600080fd5b50610297610eb8565b6040518082815260200191505060405180910390f35b3480156102b957600080fd5b506102c2610eff565b604051808215151515815260200191505060405180910390f35b3480156102e857600080fd5b506102f1610f12565b604051808273ffffffffffffffffffffffffffffffffffffffff1673ffffffffffffffffffffffffffffffffffffffff16815260200191505060405180910390f35b34801561033f57600080fd5b50610348610f3b565b604051808215151515815260200191505060405180910390f35b34801561036e57600080fd5b5061056a600480360360a081101561038557600080fd5b81019080803590602001906401000000008111156103a257600080fd5b8201836020820111156103b457600080fd5b803590602001918460018302840111640100000000831117156103d657600080fd5b91908080601f016020809104026020016040519081016040528093929190818152602001838380828437600081840152601f19601f8201169050808301925050505050505091929192908035906020019064010000000081111561043957600080fd5b82018360208201111561044b57600080fd5b8035906020019184600183028401116401000000008311171561046d57600080fd5b91908080601f016020809104026020016040519081016040528093929190818152602001838380828437600081840152601f19601f820116905080830192505050505050509192919290803590602001906401000000008111156104d057600080fd5b8201836020820111156104e257600080fd5b8035906020019184600183028401116401000000008311171561050457600080fd5b91908080601f016020809104026020016040519081016040528093929190818152602001838380828437600081840152601f19601f8201169050808301925050505050505091929192908035906020019092919080359060200190929190505050610f92565b005b34801561057857600080fd5b506105a56004803603602081101561058f57600080fd5b81019080803590602001909291905050506112ad565b604051808881526020018060200180602001806020018781526020018681526020018573ffffffffffffffffffffffffffffffffffffffff1673ffffffffffffffffffffffffffffffffffffffff16815260200184810384528a818151815260200191508051906020019080838360005b83811015610631578082015181840152602081019050610616565b50505050905090810190601f16801561065e5780820380516001836020036101000a031916815260200191505b50848103835289818151815260200191508051906020019080838360005b8381101561069757808201518184015260208101905061067c565b50505050905090810190601f1680156106c45780820380516001836020036101000a031916815260200191505b50848103825288818151815260200191508051906020019080838360005b838110156106fd5780820151818401526020810190506106e2565b50505050905090810190601f16801561072a5780820380516001836020036101000a031916815260200191505b509a505050505050505050505060405180910390f35b34801561074c57600080fd5b506107796004803603602081101561076357600080fd5b81019080803590602001909291905050506115f2565b604051808273ffffffffffffffffffffffffffffffffffffffff1673ffffffffffffffffffffffffffffffffffffffff16815260200191505060405180910390f35b3480156107c757600080fd5b506107d061162f565b6040518082815260200191505060405180910390f35b3480156107f257600080fd5b5061081f6004803603602081101561080957600080fd5b8101908080359060200190929190505050611635565b604051808681526020018581526020018481526020018381526020018273ffffffffffffffffffffffffffffffffffffffff1673ffffffffffffffffffffffffffffffffffffffff1681526020019550505050505060405180910390f35b6108b36004803603604081101561089357600080fd5b810190808035906020019092919080359060200190929190505050611781565b005b3480156108c157600080fd5b50610904600480360360208110156108d857600080fd5b81019080803573ffffffffffffffffffffffffffffffffffffffff169060200190929190505050611f5e565b005b61090e610f3b565b151561091957600080fd5b600b60019054906101000a900460ff1615600b60016101000a81548160ff021916908315150217905550565b60018060003373ffffffffffffffffffffffffffffffffffffffff1673ffffffffffffffffffffffffffffffffffffffff16815260200190815260200160002060006101000a81548160ff021916908360038111156109a057fe5b02179055506001600a600082825401925050819055503360026000600a54815260200190815260200160002060006101000a81548173ffffffffffffffffffffffffffffffffffffffff021916908373ffffffffffffffffffffffffffffffffffffffff160217905550565b610a14610f3b565b1515610a1f57600080fd5b6002600160008373ffffffffffffffffffffffffffffffffffffffff1673ffffffffffffffffffffffffffffffffffffffff16815260200190815260200160002060006101000a81548160ff02191690836003811115610a7b57fe5b021790555050565b60095481565b600b60009054906101000a900460ff16151515610b0e576040517f08c379a00000000000000000000000000000000000000000000000000000000081526004018080602001828103825260118152602001807f7265656e7472616e63794c6f636b65642100000000000000000000000000000081525060200191505060405180910390fd5b6001600b60006101000a81548160ff021916908315150217905550600b60019054906101000a900460ff16151515610bae576040517f08c379a000000000000000000000000000000000000000000000000000000000815260040180806020018281038252600f8152602001807f456d657267656e63792073746f7021000000000000000000000000000000000081525060200191505060405180910390fd5b6000600760003373ffffffffffffffffffffffffffffffffffffffff1673ffffffffffffffffffffffffffffffffffffffff16815260200190815260200160002054111515610c65576040517f08c379a00000000000000000000000000000000000000000000000000000000081526004018080602001828103825260118152602001807f436865636b207468652062616c616e636500000000000000000000000000000081525060200191505060405180910390fd5b6000600760003373ffffffffffffffffffffffffffffffffffffffff1673ffffffffffffffffffffffffffffffffffffffff1681526020019081526020016000205490506000600760003373ffffffffffffffffffffffffffffffffffffffff1673ffffffffffffffffffffffffffffffffffffffff168152602001908152602001600020819055503373ffffffffffffffffffffffffffffffffffffffff166108fc829081150290604051600060405180830381858888f19350505050158015610d34573d6000803e3d6000fd5b507f3bed33ce2d4b2096a0556fc512e8620ebd1bf580b4bbe9d13adc103d9e43d0fe816040518082815260200191505060405180910390a1506000600b60006101000a81548160ff021916908315150217905550565b600a5481565b6000600160008373ffffffffffffffffffffffffffffffffffffffff1673ffffffffffffffffffffffffffffffffffffffff16815260200190815260200160002060009054906101000a900460ff169050919050565b610dee610f3b565b1515610df957600080fd5b600073ffffffffffffffffffffffffffffffffffffffff166000809054906101000a900473ffffffffffffffffffffffffffffffffffffffff1673ffffffffffffffffffffffffffffffffffffffff167f8be0079c531659141344cd1fd0a4f28419497f9722a3daafe3b4186f6b6457e060405160405180910390a360008060006101000a81548173ffffffffffffffffffffffffffffffffffffffff021916908373ffffffffffffffffffffffffffffffffffffffff160217905550565b6000600760003373ffffffffffffffffffffffffffffffffffffffff1673ffffffffffffffffffffffffffffffffffffffff16815260200190815260200160002054905090565b600b60019054906101000a900460ff1681565b60008060009054906101000a900473ffffffffffffffffffffffffffffffffffffffff16905090565b60008060009054906101000a900473ffffffffffffffffffffffffffffffffffffffff1673ffffffffffffffffffffffffffffffffffffffff163373ffffffffffffffffffffffffffffffffffffffff1614905090565b60026003811115610f9f57fe5b600160003373ffffffffffffffffffffffffffffffffffffffff1673ffffffffffffffffffffffffffffffffffffffff16815260200190815260200160002060009054906101000a900460ff166003811115610ff757fe5b1480611064575060038081111561100a57fe5b600160003373ffffffffffffffffffffffffffffffffffffffff1673ffffffffffffffffffffffffffffffffffffffff16815260200190815260200160002060009054906101000a900460ff16600381111561106257fe5b145b15156110d8576040517f08c379a000000000000000000000000000000000000000000000000000000000815260040180806020018281038252601f8152602001807f617574686f726974792073686f756c642062652073746f7265206f776e65720081525060200191505060405180910390fd5b60016008600082825401925050819055506110f1612077565b60e06040519081016040528060085481526020018781526020018681526020018581526020018481526020018381526020013373ffffffffffffffffffffffffffffffffffffffff16815250905080600360003373ffffffffffffffffffffffffffffffffffffffff1673ffffffffffffffffffffffffffffffffffffffff168152602001908152602001600020600060085481526020019081526020016000206000820151816000015560208201518160010190805190602001906111b89291906120cb565b5060408201518160020190805190602001906111d59291906120cb565b5060608201518160030190805190602001906111f29291906120cb565b506080820151816004015560a0820151816005015560c08201518160060160006101000a81548173ffffffffffffffffffffffffffffffffffffffff021916908373ffffffffffffffffffffffffffffffffffffffff1602179055509050503360056000600854815260200190815260200160002060006101000a81548173ffffffffffffffffffffffffffffffffffffffff021916908373ffffffffffffffffffffffffffffffffffffffff160217905550505050505050565b6000606080606060008060006112c1612077565b60036000600560008c815260200190815260200160002060009054906101000a900473ffffffffffffffffffffffffffffffffffffffff1673ffffffffffffffffffffffffffffffffffffffff1673ffffffffffffffffffffffffffffffffffffffff16815260200190815260200160002060008a815260200190815260200160002060e0604051908101604052908160008201548152602001600182018054600181600116156101000203166002900480601f0160208091040260200160405190810160405280929190818152602001828054600181600116156101000203166002900480156113f35780601f106113c8576101008083540402835291602001916113f3565b820191906000526020600020905b8154815290600101906020018083116113d657829003601f168201915b50505050508152602001600282018054600181600116156101000203166002900480601f0160208091040260200160405190810160405280929190818152602001828054600181600116156101000203166002900480156114955780601f1061146a57610100808354040283529160200191611495565b820191906000526020600020905b81548152906001019060200180831161147857829003601f168201915b50505050508152602001600382018054600181600116156101000203166002900480601f0160208091040260200160405190810160405280929190818152602001828054600181600116156101000203166002900480156115375780601f1061150c57610100808354040283529160200191611537565b820191906000526020600020905b81548152906001019060200180831161151a57829003601f168201915b5050505050815260200160048201548152602001600582015481526020016006820160009054906101000a900473ffffffffffffffffffffffffffffffffffffffff1673ffffffffffffffffffffffffffffffffffffffff1673ffffffffffffffffffffffffffffffffffffffff16815250509050806000015181602001518260400151836060015184608001518560a001518660c00151859550849450839350975097509750975097509750975050919395979092949650565b60006002600083815260200190815260200160002060009054906101000a900473ffffffffffffffffffffffffffffffffffffffff169050919050565b60085481565b600080600080600061164561214b565b60046000600660008a815260200190815260200160002060009054906101000a900473ffffffffffffffffffffffffffffffffffffffff1673ffffffffffffffffffffffffffffffffffffffff1673ffffffffffffffffffffffffffffffffffffffff168152602001908152602001600020600088815260200190815260200160002060a06040519081016040529081600082015481526020016001820154815260200160028201548152602001600382015481526020016004820160009054906101000a900473ffffffffffffffffffffffffffffffffffffffff1673ffffffffffffffffffffffffffffffffffffffff1673ffffffffffffffffffffffffffffffffffffffff1681525050905080600001518160200151826040015183606001518460800151955095509550955095505091939590929450565b600b60019054906101000a900460ff16151515611806576040517f08c379a000000000000000000000000000000000000000000000000000000000815260040180806020018281038252600f8152602001807f456d657267656e63792073746f7021000000000000000000000000000000000081525060200191505060405180910390fd5b61180e612077565b600360006005600086815260200190815260200160002060009054906101000a900473ffffffffffffffffffffffffffffffffffffffff1673ffffffffffffffffffffffffffffffffffffffff1673ffffffffffffffffffffffffffffffffffffffff168152602001908152602001600020600084815260200190815260200160002060e0604051908101604052908160008201548152602001600182018054600181600116156101000203166002900480601f0160208091040260200160405190810160405280929190818152602001828054600181600116156101000203166002900480156119405780601f1061191557610100808354040283529160200191611940565b820191906000526020600020905b81548152906001019060200180831161192357829003601f168201915b50505050508152602001600282018054600181600116156101000203166002900480601f0160208091040260200160405190810160405280929190818152602001828054600181600116156101000203166002900480156119e25780601f106119b7576101008083540402835291602001916119e2565b820191906000526020600020905b8154815290600101906020018083116119c557829003601f168201915b50505050508152602001600382018054600181600116156101000203166002900480601f016020809104026020016040519081016040528092919081815260200182805460018160011615610100020316600290048015611a845780601f10611a5957610100808354040283529160200191611a84565b820191906000526020600020905b815481529060010190602001808311611a6757829003601f168201915b5050505050815260200160048201548152602001600582015481526020016006820160009054906101000a900473ffffffffffffffffffffffffffffffffffffffff1673ffffffffffffffffffffffffffffffffffffffff1673ffffffffffffffffffffffffffffffffffffffff168152505090506000828260800151029050828260a0015110151515611b80576040517f08c379a000000000000000000000000000000000000000000000000000000000815260040180806020018281038252601c8152602001807f4e6f7420656e6f75676820616d6f756e74206f662070726f647563740000000081525060200191505060405180910390fd5b803410151515611bf8576040517f08c379a00000000000000000000000000000000000000000000000000000000081526004018080602001828103825260118152602001807f496e73756666696369656e742066756e6400000000000000000000000000000081525060200191505060405180910390fd5b34600760008460c0015173ffffffffffffffffffffffffffffffffffffffff1673ffffffffffffffffffffffffffffffffffffffff16815260200190815260200160002060008282540192505081905550828260a001818151039150818152505081600360006005600088815260200190815260200160002060009054906101000a900473ffffffffffffffffffffffffffffffffffffffff1673ffffffffffffffffffffffffffffffffffffffff1673ffffffffffffffffffffffffffffffffffffffff1681526020019081526020016000206000868152602001908152602001600020600082015181600001556020820151816001019080519060200190611d039291906120cb565b506040820151816002019080519060200190611d209291906120cb565b506060820151816003019080519060200190611d3d9291906120cb565b506080820151816004015560a0820151816005015560c08201518160060160006101000a81548173ffffffffffffffffffffffffffffffffffffffff021916908373ffffffffffffffffffffffffffffffffffffffff1602179055509050506001600960008282540192505081905550611db561214b565b60a06040519081016040528060095481526020018681526020018581526020018381526020013373ffffffffffffffffffffffffffffffffffffffff16815250905080600460003373ffffffffffffffffffffffffffffffffffffffff1673ffffffffffffffffffffffffffffffffffffffff168152602001908152602001600020600060095481526020019081526020016000206000820151816000015560208201518160010155604082015181600201556060820151816003015560808201518160040160006101000a81548173ffffffffffffffffffffffffffffffffffffffff021916908373ffffffffffffffffffffffffffffffffffffffff1602179055509050503360066000600954815260200190815260200160002060006101000a81548173ffffffffffffffffffffffffffffffffffffffff021916908373ffffffffffffffffffffffffffffffffffffffff1602179055507fbeff95772ef0cabd92b07d2f1b04c37b7d49e26906616b888fdfdc0365aebad285858460405180848152602001838152602001828152602001935050505060405180910390a15050505050565b611f66610f3b565b1515611f7157600080fd5b611f7a81611f7d565b50565b600073ffffffffffffffffffffffffffffffffffffffff168173ffffffffffffffffffffffffffffffffffffffff1614151515611fb957600080fd5b8073ffffffffffffffffffffffffffffffffffffffff166000809054906101000a900473ffffffffffffffffffffffffffffffffffffffff1673ffffffffffffffffffffffffffffffffffffffff167f8be0079c531659141344cd1fd0a4f28419497f9722a3daafe3b4186f6b6457e060405160405180910390a3806000806101000a81548173ffffffffffffffffffffffffffffffffffffffff021916908373ffffffffffffffffffffffffffffffffffffffff16021790555050565b60e060405190810160405280600081526020016060815260200160608152602001606081526020016000815260200160008152602001600073ffffffffffffffffffffffffffffffffffffffff1681525090565b828054600181600116156101000203166002900490600052602060002090601f016020900481019282601f1061210c57805160ff191683800117855561213a565b8280016001018555821561213a579182015b8281111561213957825182559160200191906001019061211e565b5b5090506121479190612191565b5090565b60a06040519081016040528060008152602001600081526020016000815260200160008152602001600073ffffffffffffffffffffffffffffffffffffffff1681525090565b6121b391905b808211156121af576000816000905550600101612197565b5090565b9056fea165627a7a72305820a2c734c86a90d0d79f8a4807351593ef737485a91d977daca3d0935b04c1d80b0029",
  "source": "pragma solidity ^0.5.0;\r\n\r\n/**\r\n  * Import SafeMath and Ownable Library from Zeppelin\r\n  */\r\nimport \"installed_contracts/zeppelin/contracts/math/SafeMath.sol\";\r\nimport \"installed_contracts/zeppelin/contracts/ownership/Ownable.sol\";\r\n\r\n/** \r\n  * @title Market place on Ethereum\r\n  * @author Sooyoung Hyun\r\n  * @notice You can use this contract to create online market place based on smart contracts.\r\n  * @dev For more implementation details read the \"design_pattern_decisions.md\" document. \r\n  */\r\ncontract Marketplace is Ownable {\r\n\r\n    mapping (address => Auth) auth;\r\n    mapping (uint => address) requests;\r\n    mapping (address => mapping(uint => Product)) stores;\r\n    mapping (address => mapping(uint => Order)) orders;\r\n    mapping (uint => address) whoseProduct;\r\n    mapping (uint => address) whoseOrder;\r\n    mapping (address => uint) balance;\r\n\r\n    uint public productIndex;\r\n    uint public orderIndex;\r\n    uint public requestIndex;\r\n    bool private reentrancyLock = false;\r\n    bool public stopped = false;\r\n\r\n    enum Auth { User, Requested, StoreOwner, Admin }\r\n\r\n    event buyProduct (uint _productId, uint _amount, uint _totalPrice);\r\n    event withdrawEther (uint amount);\r\n\r\n    modifier nonReentrancy() {  \r\n        require(!reentrancyLock, \"reentrancyLocked!\");\r\n        reentrancyLock = true;\r\n        _;\r\n        reentrancyLock = false;\r\n    }\r\n\r\n    modifier noEmergency {\r\n        require(!stopped, \"Emergency stop!\");\r\n        _;\r\n    }\r\n\r\n    modifier isStoreOwner {\r\n        require(\r\n            auth[msg.sender] == Auth.StoreOwner || auth[msg.sender] == Auth.Admin, \r\n            \"authority should be store owner\"\r\n        );\r\n        _;\r\n    }\r\n\r\n    struct Product {\r\n        uint pid;\r\n        string name;\r\n        string desc;\r\n        string imageLink;\r\n        uint price;\r\n        uint amount;\r\n        address seller;\r\n    }\r\n\r\n    struct Order {\r\n        uint oid;\r\n        uint pid;\r\n        uint amount;\r\n        uint totalPrice;\r\n        address buyer;\r\n    }\r\n\r\n    using SafeMath for uint;\r\n\r\n    constructor() public {\r\n        productIndex = 0;\r\n        orderIndex = 0;\r\n        auth[msg.sender] = Auth.Admin;\r\n    }\r\n    /**\r\n      * @notice Ask for get authority.\r\n      * @dev The smart contract work as an online market place. \r\n      * You can't add a product if your authority is not store owner.\r\n      */\r\n    function requestAuth() \r\n        public \r\n    {\r\n        auth[msg.sender] = Auth.Requested;\r\n        requestIndex += 1;\r\n        requests[requestIndex] = msg.sender;\r\n    }\r\n\r\n    /**\r\n      * @notice Update user authority.\r\n      * @dev Only owner can use this function to change user authority. \r\n      * @param _user User address for update infomation.\r\n      */\r\n    function setAuth(address _user) \r\n        public \r\n        onlyOwner\r\n    {\r\n        auth[_user] = Auth.StoreOwner;\r\n    }\r\n\r\n    /**\r\n      * @notice Get user authority.\r\n      * @dev Function used in frontend to check the user authority.\r\n      * @param _user User address for providing infomation.  \r\n      * @return Uint Number of elements of the enum Auth.\r\n      */\r\n    function getAuth(address _user) \r\n        public \r\n        view \r\n        returns (Auth) \r\n    {\r\n        return auth[_user];\r\n    }\r\n\r\n    /**\r\n      * @notice Get user request.\r\n      * @dev Function used in frontend to check the user authority.\r\n      * @param _requestIdx request index for providing infomation.  \r\n      * @return Address user address of requests.\r\n      */\r\n    function getRequest(uint _requestIdx) \r\n        public \r\n        view \r\n        returns (address) \r\n    {\r\n        return requests[_requestIdx];\r\n    }\r\n\r\n    /**\r\n      * @dev Add product to store.\r\n      * @param _name Name of product.\r\n      * @param _desc Description of product.  \r\n      * @param _imageLink It will be IPFS hash value.  \r\n      * @param _price Price of product.\r\n      * @param _amount Amount of product.  \r\n      */\r\n    function addProductToStore(\r\n        string memory _name, \r\n        string memory _desc, \r\n        string memory _imageLink, \r\n        uint _price, \r\n        uint _amount\r\n    )   public\r\n        isStoreOwner\r\n    {\r\n        productIndex += 1;\r\n        Product memory product = Product(productIndex, _name, _desc, _imageLink, _price, _amount, msg.sender);\r\n        \r\n        stores[msg.sender][productIndex] = product;\r\n        whoseProduct[productIndex] = msg.sender;\r\n    }\r\n\r\n    /**\r\n      * @notice Get product infomation.\r\n      * @dev Function used in frontend to display the products.\r\n      * @param _productId Product id for providing infomation.  \r\n      * @return uint Product ID.\r\n      * @return string Name of product.\r\n      * @return string Description of product.\r\n      * @return string IPFS hash.\r\n      * @return uint Price of product.\r\n      * @return uint Amount of product.\r\n      * @return address Owner of product.\r\n      */\r\n    function getProduct(uint _productId) public view returns (uint, string memory, string memory, \r\n    string memory, uint, uint, address) {\r\n        Product memory product = stores[whoseProduct[_productId]][_productId];\r\n        return (product.pid, product.name, product.desc, product.imageLink, \r\n        product.price, product.amount, product.seller);\r\n    }\r\n\r\n    /**\r\n      * @dev Buy product and make new order.\r\n      * @param _productId Product id for buying product.  \r\n      * @param _amount Amount of items to purchase.\r\n      */\r\n    function buy(uint _productId, uint _amount) public payable noEmergency {\r\n        Product memory product = stores[whoseProduct[_productId]][_productId];\r\n        uint _totalPrice = product.price*_amount;\r\n        require(\r\n            product.amount >= _amount,\r\n            \"Not enough amount of product\"\r\n        );\r\n        require(\r\n            msg.value >= _totalPrice,\r\n            \"Insufficient fund\"\r\n        );\r\n\r\n        balance[product.seller] += msg.value;\r\n        \r\n        product.amount -= _amount;\r\n        stores[whoseProduct[_productId]][_productId] = product;\r\n\r\n        orderIndex += 1;\r\n\r\n        Order memory order = Order(orderIndex, _productId, _amount, _totalPrice, msg.sender);\r\n        orders[msg.sender][orderIndex] = order;\r\n        whoseOrder[orderIndex] = msg.sender;\r\n        emit buyProduct(_productId, _amount, _totalPrice);\r\n    }\r\n\r\n    /**\r\n      * @notice Get order infomation.\r\n      * @dev Function used in frontend to display the orders.\r\n      * @param _orderId Order id for providing infomation.  \r\n      * @return uint Order ID.\r\n      * @return uint Product ID.\r\n      * @return uint Amount of product.\r\n      * @return uint Total price of order.\r\n      * @return address Buyer of product.\r\n      */\r\n    function getOrder(uint _orderId) public view returns (uint, uint, uint, uint, address) {\r\n        Order memory order = orders[whoseOrder[_orderId]][_orderId];\r\n        return (order.oid, order.pid, order.amount, order.totalPrice, order.buyer);\r\n    }\r\n\r\n    /**\r\n      * @notice Get balance of user.\r\n      * @dev Function used in frontend to display the balance.\r\n      * @return uint Balance of msg.sender.\r\n      */\r\n    function balanceOf() public view returns (uint){\r\n        return balance[msg.sender];\r\n    }\r\n    \r\n    /**\r\n      * @dev Withdraw the deposit stored in the contract.\r\n      */\r\n    function withdraw() public nonReentrancy noEmergency {\r\n        require(\r\n            balance[msg.sender] > 0,\r\n            \"Check the balance\"\r\n        );\r\n        uint amount = balance[msg.sender];\r\n\r\n        // The user's balance is already 0, so future invocations won't withdraw anything\r\n        balance[msg.sender] = 0;\r\n        msg.sender.transfer(amount);\r\n        emit withdrawEther(amount);\r\n    }\r\n\r\n    /**\r\n     * @notice Enable the emergency stop.\r\n     * @dev Owner of the smart contract activate the emergency stop. \r\n     * Function 'buy' and 'withdraw' can't be called. \r\n     */\r\n    function toggleContractActive() public onlyOwner {\r\n        stopped = !stopped;\r\n    }\r\n}\r\n",
  "sourcePath": "C:/Users/sooyoung/Desktop/consensys/final_project/consensys-project/contracts/Marketplace.sol",
  "compiler": {
    "name": "solc",
    "version": "0.5.0+commit.1d4f565a.Emscripten.clang"
  },
  "schemaVersion": "3.0.0",
  "updatedAt": "2019-01-28T14:50:45.348Z",
  "devdoc": {
    "author": "Sooyoung Hyun\r",
    "details": "For more implementation details read the \"design_pattern_decisions.md\" document. \r",
    "methods": {
      "addProductToStore(string,string,string,uint256,uint256)": {
        "details": "Add product to store.\r",
        "params": {
          "_amount": "Amount of product.  \r",
          "_desc": "Description of product.  \r",
          "_imageLink": "It will be IPFS hash value.  \r",
          "_name": "Name of product.\r",
          "_price": "Price of product.\r"
        }
      },
      "balanceOf()": {
        "details": "Function used in frontend to display the balance.\r",
        "return": "uint Balance of msg.sender.\r"
      },
      "buy(uint256,uint256)": {
        "details": "Buy product and make new order.\r",
        "params": {
          "_amount": "Amount of items to purchase.\r",
          "_productId": "Product id for buying product.  \r"
        }
      },
      "getAuth(address)": {
        "details": "Function used in frontend to check the user authority.\r",
        "params": {
          "_user": "User address for providing infomation.  \r"
        },
        "return": "Uint Number of elements of the enum Auth.\r"
      },
      "getOrder(uint256)": {
        "details": "Function used in frontend to display the orders.\r",
        "params": {
          "_orderId": "Order id for providing infomation.  \r"
        },
        "return": "uint Order ID.\ruint Product ID.\ruint Amount of product.\ruint Total price of order.\raddress Buyer of product.\r"
      },
      "getProduct(uint256)": {
        "details": "Function used in frontend to display the products.\r",
        "params": {
          "_productId": "Product id for providing infomation.  \r"
        },
        "return": "uint Product ID.\rstring Name of product.\rstring Description of product.\rstring IPFS hash.\ruint Price of product.\ruint Amount of product.\raddress Owner of product.\r"
      },
      "getRequest(uint256)": {
        "details": "Function used in frontend to check the user authority.\r",
        "params": {
          "_requestIdx": "request index for providing infomation.  \r"
        },
        "return": "Address user address of requests.\r"
      },
      "isOwner()": {
        "return": "true if `msg.sender` is the owner of the contract.\r"
      },
      "owner()": {
        "return": "the address of the owner.\r"
      },
      "renounceOwnership()": {
        "details": "Allows the current owner to relinquish control of the contract.\r"
      },
      "requestAuth()": {
        "details": "The smart contract work as an online market place. \r You can't add a product if your authority is not store owner.\r"
      },
      "setAuth(address)": {
        "details": "Only owner can use this function to change user authority. \r",
        "params": {
          "_user": "User address for update infomation.\r"
        }
      },
      "toggleContractActive()": {
        "details": "Owner of the smart contract activate the emergency stop. \r Function 'buy' and 'withdraw' can't be called. \r"
      },
      "transferOwnership(address)": {
        "details": "Allows the current owner to transfer control of the contract to a newOwner.\r",
        "params": {
          "newOwner": "The address to transfer ownership to.\r"
        }
      },
      "withdraw()": {
        "details": "Withdraw the deposit stored in the contract.\r"
      }
    },
    "title": "Market place on Ethereum\r"
  },
  "userdoc": {
    "methods": {
      "balanceOf()": {
        "notice": "Get balance of user.\r"
      },
      "getAuth(address)": {
        "notice": "Get user authority.\r"
      },
      "getOrder(uint256)": {
        "notice": "Get order infomation.\r"
      },
      "getProduct(uint256)": {
        "notice": "Get product infomation.\r"
      },
      "getRequest(uint256)": {
        "notice": "Get user request.\r"
      },
      "renounceOwnership()": {
        "notice": "Renouncing to ownership will leave the contract without an owner.\r It will not be possible to call the functions with the `onlyOwner`\r modifier anymore.\r"
      },
      "requestAuth()": {
        "notice": "Ask for get authority.\r"
      },
      "setAuth(address)": {
        "notice": "Update user authority.\r"
      },
      "toggleContractActive()": {
        "notice": "Enable the emergency stop.\r"
      }
    },
    "notice": "You can use this contract to create online market place based on smart contracts.\r"
  }
}